:1000000000308A00CE2800000A108A100A118207E8
:10001000C034F934A434B034993492348234F8348E
:100020008034903400340034003400340034003420
:100030002D3084008313000803192B280630F800A4
:10004000F701F70B2128F80B20287B30F700F70B7E
:100050002728800B1E288A110A1238298318332872
:10006000393084008313F701F801F901FA01B9016D
:10007000BA01BB01BC013808370436043504031942
:1000800071282030BD000310B10DB20DB30DB40DB9
:10009000B90DBA0DBB0DBC0D38083C02031D5A2822
:1000A00037083B02031D5A2836083A02031D5A2816
:1000B00035083902031C6B283508B9023608031CC1
:1000C000360FBA023708031C370FBB023808031C6F
:1000D000380FBC020314F70DF80DF90DFA0DBD0B26
:1000E000432839088000840A3A088000840A3B08C3
:1000F0008000840A3C08800008002030B900B50167
:10010000B601B701B8013008FA002F08F9002E082F
:10011000F8002D08F7000310771C9C283108B5075C
:1001200032080318320FB60733080318330FB70726
:1001300034080318340FB807B80CB70CB60CB50C5C
:10014000FA0CF90CF80CF70CB90B8B288A110A126F
:100150005F29F801F901F701FA013008031DB328FE
:100160002F080319CD281030B1000310AD0DAE0DCE
:10017000F70DFA0D30087A02031DC0282F08770208
:10018000031CC9282F08F702031CFA033008FA02DF
:100190000314F80DF90DB10BB528080003081F3939
:1001A00083002B10FF30AC00831603170908C039F9
:1001B000890003131F129F12003003178800831257
:1001C0008701880189018313003083160313870098
:1001D0008312AC0083168800013085000030860051
:1001E00083121F139F1783169F1783121F148316E2
:1001F00003170908C039890003131F129F12013029
:10020000031788000030F800831203131F08C33956
:1002100078049F000030AC0083168701C030831241
:1002200087008316880183128800831606108312C4
:100230000610A401A301A201A101A0012008633CB2
:10024000031C3A299F149F18232983161E08831222
:10025000A1071E0803181E0FA20700300318013063
:10026000A307003003180130A4070130AD0018289F
:10027000A00A1E2983102408B4002308B300220812
:10028000B2002108B100B801B701B6016430B50071
:100290002E207A08A4007908A3007808A200770825
:1002A000A1002408B0002308AF002208AE002108F6
:1002B000AD00B401B301B2016430B1007D287A0809
:1002C000B0007908AF007808AE007708AD00831061
:1002D0007A08B4007908B3007808B2007708B10052
:1002E000B801B7010330B600FF30B5002E207A0800
:1002F000A8007908A7007808A6007708A5002508B7
:10030000643CA5002608031C260F88290030892993
:10031000003CA6002708031C270F902900309129D4
:10032000003CA7002808031C280F982900309929B1
:10033000003CA8002608AA002508A9002A08AE004B
:100340002908AD00B0010A30AF00A9207908AE003D
:100350007808AD007908FA0078080420AF00003072
:10036000AC008316870183122F0887002A08AE008D
:100370002908AD00B0010A30AF00A9207708AD0010
:100380007A08AE00FA0077080420AF0083168801CF
:1003900083122F088800AA08031DDA292908403C87
:1003A000031CDA292B18DA292B1483160610831262
:1003B0000614E829AA08031DE1292908413C03186D
:1003C000E8292B1CE8292B1083160610831206102F
:0403D0001929630084
:04400E00E22FFF3F5F
:00000001FF
;PIC16F887
;CRC=4129  CREATED="20-Dec-17 23:58"
